S02400003130736567636F6C6F726C65645F6932635F617474696E79323331332E73726563EE
S113000012C02AC029C028C027C026C025C024C0C9
S113001023C022C021C020C01FC082C01DC073C124
S113002089C11AC019C011241FBECFEDCDBF10E085
S1130030A0E6B0E0E0E2F4E002C005900D92A03644
S1130040B107D9F720E0A0E6B0E001C01D92A13AC3
S1130050B207E1F788D0E2C1D3CF80E886BD83E060
S113006086BD87B38F6587BB81B38F6781BB88B338
S1130070887F88BB82B3807882BB88B3886588BB5D
S113008082E080BF81E083BF12BE99EE96BF1CBEA2
S113009089BF089588B3887F88BB82B3807882BB88
S11300A088B3886588BB0895AC0198B322B3362F12
S11300B0330F330F330F309538716295607F60953D
S11300C06074632B907A692BCA01880F892F881F6B
S11300D0990B91958770682B922F9078842F8F7746
S11300E0892B68BB82BB0895CF93D4DFC091600095
S11300F0EC2FF0E0EF59FF4F608181E090E00C2E8F
S113010002C0880F991F0A94E2F7CEDFCF5FCA308E
S113011018F4C093600002C010926000CF9108955B
S11301201F920F920FB60F9211242F933F934F9368
S11301305F936F937F938F939F93AF93BF93EF934B
S1130140FF93D2DFFF91EF91BF91AF919F918F9178
S11301507F916F915F914F913F912F910F900FBEBF
S11301600F901F901895CF93DF93CDB7DD27C05222
S1130170CDBF73DF85E585D07894C12C91E6E92E57
S113018090E0F92EB7D08823E9F3CE0101965C0103
S113019080E2982ED12C8501ADD0882321F0D39410
S11301A096D0F50180839A94FFEFAF1ABF0A91109D
S11301B0F3CF40E050E02D2D30E04D1508F057C04E
S11301C0842F90E0B901681B790B623071050CF43F
S11301D03FC0F801E80FF91FE08181E0840FD801E6
S11301E0A80FB11D4E5F8C91EA3010F4F0E02BC0E3
S11301F0E03149F4E1E6F0E08770819390E0EB367A
S1130200F907D9F7DACFE13161F4EAE6F0E0929147
S113021097709183EE16FF06D1F787708093610083
S1130220CCCFE23151F6A1E6B0E060E070E0FB0132
S11302306F5F7F4F6A30710531F011969C91119771
S113024097709D93F4CFEF59FF4F87708083B5CF9C
S11302506130710509F0B1CF4F5FF801E80FF91F64
S113026080818A3008F0A9CFC82E51E0A6CF55234B
S113027009F488CFEC2DF0E0EF59FF4F808114D0C2
S113028081CF10927D0010927E0010926B0010922C
S11302906C008093A000C79AC59ABF9ABD9888EA5B
S11302A08DB980EF8EB9089590916C009F5F9F7017
S11302B090936C0020916C0090916B002917D1F3FE
S11302C0E0916C00F0E0E359FF4F80830895909132
S11302D07E0080917D009817D1F380917D008F5F1F
S11302E08F7180937D00E0917D00F0E0E158FF4F35
S11302F08081089520917E0090917D0081E02913F2
S113030001C080E008951F920F920FB60F9211243E
S11303108F9310929F00BD98B79B02C0B59BFCCFF2
S113032088EF8DB980EF8EB98F910F900FBE0F902B
S11303301F9018951F920F920FB60F9211248F934E
S11303409F93EF93FF9380919F00823009F44AC0FA
S113035028F48823C1F0813031F157C0843009F486
S113036047C0F0F0853009F050C080917E008F5F67
S11303708F7180937E00E0917E008FB1F0E0E158B0
S1130380FF4F80833BC08FB1882331F08FB18695B6
S11303909091A000891323C0789B30C081E02FC0C6
S11303A08FB181111CC090916C0080916B009817E3
S11303B091F080916B008F5F8F7080936B00E09160
S11303C06B00F0E0E359FF4F80818FB982E08093A6
S11303D09F00BD9A11C0BD981FB88EE78EB988EAF8
S11303E08DB90AC083E080939F00BD981FB80BC0ED
S11303F085E080939F00BD9880E706C084E08093E9
S11304009F001FB8BD9A8EE78EB9FF91EF919F911F
S11304108F910F900FBE0F901F901895F894FFCFF7
S9030000FC
